:100000000C9456000C9460000C9460000C946000FA
:100010000C9460000C9460000C9460000C946000E0
:100020000C9460000C9460000C9460000C946000D0
:100030000C9460000C9460000C9460000C946000C0
:100040000C9460000C9460000C9460000C946000B0
:100050000C9460000C9460000C9460000C946000A0
:100060000C9460000C9460000C9460000C94600090
:100070000C9460000C9460000C9460000C94600080
:100080000C9460000C9460000C9460000C94600070
:100090000C9460000C9460000C9460000C94600060
:1000A0000C9460000C9460000C94600011241FBE3E
:1000B000CFEFDAE0DEBFCDBF0E9462000C94D0002B
:1000C0000C940000DF93CF93CDB7DEB784E290E0CD
:1000D00024E230E0F9012081287FFC0120838AE2BC
:1000E00090E02AE230E0F9012081206EFC012083BB
:1000F00083E290E0FC018081882F90E08170907015
:10010000882351F08BE290E02BE230E0F90120816E
:100110002062FC01208309C08BE290E02BE230E0FA
:10012000F90120812F7DFC01208383E290E0FC0116
:100130008081882F90E082709070009751F08BE260
:1001400090E02BE230E0F90120812064FC01208363
:1001500009C08BE290E02BE230E0F90120812F7B97
:10016000FC01208383E290E0FC018081882F90E0F5
:1001700083709070009751F08BE290E02BE230E0BA
:10018000F90120812068FC012083B2CF8BE290E04E
:100190002BE230E0F90120812F77FC012083A8CFEA
:0401A000F894FFCF01
:00000001FF
