:100000000C9456000C9460000C9460000C946000FA
:100010000C9460000C9460000C9460000C946000E0
:100020000C9460000C9460000C9460000C946000D0
:100030000C9460000C9460000C9460000C946000C0
:100040000C9460000C9460000C9460000C946000B0
:100050000C9460000C9460000C9460000C946000A0
:100060000C9460000C9460000C9460000C94600090
:100070000C9460000C9460000C9460000C94600080
:100080000C9460000C9460000C9460000C94600070
:100090000C9460000C9460000C9460000C94600060
:1000A0000C9460000C9460000C94600011241FBE3E
:1000B000CFEFDAE0DEBFCDBF0E9462000C948D006E
:1000C0000C940000DF93CF93CDB7DEB78AE290E0C7
:1000D0002AE230E0F90120812061FC0120838AE2DC
:1000E00090E02AE230E0F90120812860FC012083C1
:1000F0008BE290E02BE230E0F901308128E0232709
:10010000FC0120838BE290E02BE230E0F9013081AA
:0E01100020E12327FC012083EBCFF894FFCFE2
:00000001FF
