:100000000C94FD000C941A010C941A010C941A0122
:100010000C941A010C941A010C941A010C941A01F4
:100020000C941A010C941A010C946F040C94AA04F9
:100030000C941A010C941A010C941A010C941A01D4
:100040000C941A010C941A010C941A010C941A01C4
:100050000C941A010C941A010C941A010C941A01B4
:100060000C941A010C941A010C941A010C941A01A4
:100070000C941A010C941A010C941A010C941A0194
:100080000C941A010C941A010C941A010C941A0184
:100090000C941A010C941A010C941A010C941A0174
:1000A0000C941A010C941A010C941A010304000414
:1000B000FD03FA03F703F403F103EE03EB03E80394
:1000C000E503E203DF03DC03D903D603D303D00344
:1000D000CD03CA03C703C403C103BE03BB03B803F4
:1000E000B503B203AF03AC03A903A603A303A003A4
:1000F0009D039A039703940391038E038B03880354
:10010000850382037F037C03790376037303700303
:100110006D036A036703640361035E035B035803B3
:10012000550352034F034C034903460343037365CE
:100130006E74323A200073656E74313A2000766135
:100140006C75653A2000000100007A01120002007F
:10015000008C014300030000CF010401030904D314
:10016000011202030904E7010603030904EF010871
:100170000001C11201803601813612010002020025
:100180000010C0167A0400010102030109024300B5
:10019000020100C03209040000010202010005242E
:1001A00000100105240101010424020605240600B3
:1001B000010705820310004009040100020A000043
:1001C0000007050302400000070584024000000408
:1001D00003090412034A002E00200046006900654E
:1001E000006E006500000006034D003200000008AC
:1001F0000334003100300000000011241FBECFEF97
:10020000DAE0DEBFCDBF11E0A0E0B1E0EEEFFFE04D
:1002100002C005900D92A830B107D9F711E0A8E00F
:10022000B1E001C01D92AC30B107E1F70E94E001DE
:100230000C94FD070C94000080E197E220E931E086
:10024000F9013197F1F70197D9F7089520E030E0EF
:100250008091BC0087FD06C02F5F3F4F83E0293EA1
:100260003807B1F780E0285E334009F081E0089557
:100270008093BB0084E88093BC000E942601882301
:1002800019F08091B900887F08950F931F93182F5C
:10029000062F84EA8093BC008091BC0087FFFCCFCE
:1002A0008091B90080910001880F0E94380180324E
:1002B00021F484E98093BC0023C0883109F51093B0
:1002C000BB0084E88093BC008091BC0087FFFCCF1A
:1002D0008091B900887F883299F40093BB0084E84C
:1002E0008093BC008091BC0087FFFCCF8091B90057
:1002F000887F883229F484E98093BC0081E001C0C2
:1003000080E01F910F91089584EA8093BC000E94C1
:100310002601882309F451C080B3826F80BB11BAD3
:1003200080910001880F0E943801803221F484E915
:100330008093BC0042C0883109F03FC084E08093C4
:10034000BB0084E88093BC008091BC0087FFFCCF99
:100350008091B900887F883281F584EA8093BC005F
:100360008091BC0087FFFCCF8091B900887F8031ED
:1003700021F580910001880F81608093BB0084E8A3
:100380008093BC008091BC0087FFFCCF8091B900B6
:10039000887F803491F484E88093BC008091BC0015
:1003A00087FFFCCF8091B900887F883531F4909128
:1003B000BB0084E98093BC0001C090E0892F0895C0
:1003C00080E880936100109261000E942A020E94DE
:1003D0003B020E9454028823E1F36A9A72988BE2EE
:1003E0008093B80020E030E040E951E00AC0FA0113
:1003F0003197F1F70197D9F72F5F3F4F2330310540
:1004000019F080E29EE4F3CF6A9A729A8EE391E04B
:100410000E9415060E94840190E00E94BE060E9480
:100420001D0481E062E00E9445016E9A769886E3A1
:1004300091E00E9415060E941D0483E064E00E9482
:1004400045018EE291E00E9415060E941D0480E0A5
:1004500090E00895589A599A5A9A8CE08093B8007F
:10046000E9E6F0E080818062808380818F7E8083F6
:10047000EA9A7894089581E08093D70080EA809387
:10048000D80082E189BD09B400FEFDCF80E98093E8
:10049000D8001092E00010920801109209018CE03F
:1004A0008093E200789408958091080108952FB711
:1004B000F89480910801882339F083E08093E90063
:1004C0008091E80085FD03C02FBF9FEF0AC0909187
:1004D000F1008091E80085FD03C08BE68093E80081
:1004E0002FBF892F08959FB7F89480910801882322
:1004F00029F083E08093E9008091F2009FBF089586
:1005000080910801882371F09FB7F89483E080936D
:10051000E9002BE602C02093E8008091E80085FD09
:10052000FACF9FBF0895482F809108018823D9F101
:100530002FB7F89484E08093E90080910B01882321
:1005400041F08091E80085FD02C02FBF12C01092DB
:100550000B019091E400975E34E08091E80085FD06
:1005600013C02FBF8091E400891729F481E08093A4
:100570000B018FEF0895809108018823A1F02FB718
:10058000F8943093E900E9CF4093F1008091E800BE
:1005900085FD03C08AE38093E80085E080930A012B
:1005A0002FBF80E008958FEF0895282F80910801D4
:1005B000882351F09FB7F89484E08093E9008091FC
:1005C000E80085FD03C09FBF8FEF08952093F100E1
:1005D0008091E80085FD03C08AE38093E80085E010
:1005E00080930A019FBF80E00895CF93DF93EC01D1
:1005F00080910801882309F41CC13FB7F89484E076
:100600008093E90080910B01882309F407C1809150
:10061000E80085FD02C03FBF0CC110920B01FEC077
:100620009091E400975E8091E80085FD13C03FBF84
:100630008091E400891721F481E080930B01F9C0D7
:1006400080910801882309F4F4C03FB7F8945093CF
:10065000E900E9CF8091F2002A2F281B822F90E039
:100660006817790708F4262F822F90E081349105CE
:1006700008F0C6C08A5A9F4FFC01EE0FFF1F05907D
:10068000F491E02D099489918093F10089918093F0
:10069000F10089918093F10089918093F100899113
:1006A0008093F10089918093F10089918093F1000A
:1006B00089918093F10089918093F10089918093D1
:1006C000F10089918093F10089918093F1008991E3
:1006D0008093F10089918093F10089918093F100DA
:1006E00089918093F10089918093F10089918093A1
:1006F000F10089918093F10089918093F1008991B3
:100700008093F10089918093F10089918093F100A9
:1007100089918093F10089918093F1008991809370
:10072000F10089918093F10089918093F100899182
:100730008093F10089918093F10089918093F10079
:1007400089918093F10089918093F1008991809340
:10075000F10089918093F10089918093F100899152
:100760008093F10089918093F10089918093F10049
:1007700089918093F10089918093F1008991809310
:10078000F10089918093F10089918093F100899122
:100790008093F10089918093F10089918093F10019
:1007A00089918093F10089918093F10089918093E0
:1007B000F10089918093F10089918093F1008991F2
:1007C0008093F10089918093F10089918093F100E9
:1007D00089918093F10089918093F10089918093B0
:1007E000F10089918093F10089918093F1008991C2
:1007F0008093F10089918093F10089918093F100B9
:1008000089918093F1008091E80085FD02C0B0934A
:10081000E800621B710940930A0104C054E0A0E49F
:10082000BAE345E06115710509F0FACE3FBF80E0FB
:1008300001C08FEFDF91CF9108959FB7F894809119
:100840000A01882341F084E08093E9008AE38093E1
:10085000E80010920A019FBF089560910101709114
:100860000201809103019091040108958091050196
:10087000089580910601089580910701089580915F
:1008800009010895382F9FB7F894809108018823B3
:1008900039F022E02093E9008091E80085FD03C053
:1008A0009FBF8FEF089581EA8093F10080E28093EB
:1008B000F1001092F1001092F1001092F1001092EC
:1008C000F1002093F1001092F1003093F1001092AA
:1008D000F1008AE38093E8009FBF80E008951F92B3
:1008E0000F920FB60F9211248F939F938091E10086
:1008F0001092E100982F83FF11C01092E90081E06F
:100900008093EB001092EC0082E18093ED0088E090
:100910008093F000109208011092090192FF13C019
:1009200080910801882379F080910A01882359F089
:10093000815080930A01882331F484E08093E90098
:100940008AE38093E8009F918F910F900FBE0F90E4
:100950001F9018951F920F920FB60F9211240F93AC
:100960001F932F933F934F935F936F937F938F9337
:100970009F93AF93BF93EF93FF931092E900809101
:10098000E80083FF3CC14091F1003091F10080917B
:10099000F100682F70E02091F100922F80E0682B29
:1009A000792B8091F100A82FB0E02091F100922FD7
:1009B00080E0A82BB92B1091F1000091F10082EF9B
:1009C0008093E800363009F05AC02DE431E0A901E7
:1009D00045505040F90137978591949186179707B4
:1009E00001F5FA01859194918A179B07D1F49A0138
:1009F0002E5F3F4FF901659174912E5F3F4FF901D2
:100A00004491212F30E0902F80E0282B392B2F3F6D
:100A1000310519F010F02FEF30E0241758F4422F71
:100A200009C0295F3F4F495F5F4FF1E027373F071C
:100A300089F6E5C05EEF8091E800282F30E0C9011B
:100A400085709070892BB9F322FDDCC0342F4131C1
:100A500008F030E1232FCB0106C0FC010196E491A0
:100A6000E093F10021502223C1F7630F711D431B56
:100A70005093E8004423F9F63031E9F2C3C0353031
:100A800061F48EEF8093E8008091E80080FFFCCF56
:100A9000862F80688093E300B5C0393051F5442338
:100AA00009F0ADC0609308011092090110920A018B
:100AB0008EEF8093E80080E791E021E02093E90049
:100AC000FC010196E491E093EB00EE2369F0AC01A8
:100AD0004F5F5F4FFC0184918093EC00CA01019647
:100AE000FA0134913093ED002F5F253039F78EE114
:100AF00081C0383061F4403809F081C08091E8004D
:100B000080FFFCCF809108018093F10050C031320A
:100B100089F4413A09F073C08091E80080FFFCCF6E
:100B2000E1E0F1E081918093F10081E0E830F807A5
:100B3000C9F73DC03032A1F4413209F060C0809164
:100B4000E80082FFFCCFE1E0F1E08091F1008193C9
:100B500081E0E830F807C9F78BEF8093E80027C001
:100B6000323251F4413209F04AC060930901809158
:100B7000E80080FFFCCF1BC03323E9F48091E8003C
:100B800080FFFCCF423811F080E00DC0A093E90057
:100B90008091EB0090E025E0969587952A95E1F706
:100BA00081701092E9008093F1001092F1008EEFB5
:100BB0008093E80027C0313011F0333001F5423026
:100BC000F1F4672BE1F42A2F2F77822F81508430A4
:100BD000B0F48EEF8093E8002093E900333079F091
:100BE00089E18093EB0081E090E002C0880F991FBB
:100BF0002A95E2F78093EA001092EA0003C081E2AE
:100C00008093EB00FF91EF91BF91AF919F918F91F6
:100C10007F916F915F914F913F912F911F910F9114
:100C20000F900FBE0F901F9018951F93CF93DF93D7
:100C3000EC01FE0121961491112349F01A3019F4A8
:100C40008DE00E949302812F0E949302F2CFDF91E8
:100C5000CF911F910895982F8A3010F087E301C03B
:100C600080E3890F0E94930208951F93182F8295A5
:100C70008F700E942B06812F8F700E942B061F9170
:100C800008951F93182F892F0E943506812F0E94E7
:100C900035061F9108950E9435060895EF92FF9240
:100CA0000F931F93DF93CF93CDB7DEB72A970FB67D
:100CB000F894DEBF0FBECDBF8E010F5F1F4F2AE03D
:100CC000F80111922A95E9F7A8012AE030E00E9484
:100CD0007C073BE0E32EF12CEC0EFD1EF801808139
:100CE000882311F00E9493020F5F1F4F0E151F05FE
:100CF000A9F72A960FB6F894DEBF0FBECDBFCF91ED
:100D0000DF911F910F91FF90EF900895EF92FF9266
:100D10000F931F93DF93CF93CDB7DEB72B970FB60B
:100D2000F894DEBF0FBECDBF8E010F5F1F4F2BE0CB
:100D3000F80111922A95E9F7A8012AE030E00E9413
:100D400048074CE0E42EF12CEC0EFD1EF8018081EA
:100D5000882311F00E9493020F5F1F4F0E151F058D
:100D6000A9F72B960FB6F894DEBF0FBECDBFCF917B
:100D7000DF911F910F91FF90EF900895EF92FF92F6
:100D80000F931F93DF93CF9300D000D00F92CDB776
:100D9000DEB78E010F5F1F4F25E0F80111922A95F3
:100DA000E9F7B8014AE050E00E94A10756E0E52EBD
:100DB000F12CEC0EFD1EF8018081882311F00E94B9
:100DC00093020F5F1F4F0E151F05A9F70F900F908D
:100DD0000F900F900F90CF91DF911F910F91FF9087
:100DE000EF900895EF92FF920F931F93DF93CF93AD
:100DF00000D000D000D0CDB7DEB78E010F5F1F4FFF
:100E000026E0F80111922A95E9F7B8014AE050E08E
:100E10000E94270767E0E62EF12CEC0EFD1EF8017C
:100E20008081882311F00E9493020F5F1F4F0E15DF
:100E30001F05A9F726960FB6F894DEBF0FBECDBFEB
:100E4000CF91DF911F910F91FF90EF900895FB01DB
:100E50009F01E8944230C4F04532B4F44A3029F49A
:100E600097FB1EF4909581959F4F642F77270E94E2
:100E7000C707805D8A330CF0895D8193CB010097B1
:100E8000A1F716F45DE251931082C9010C94B707E3
:100E9000FA01CF93FF93EF93223044F1253234F5DA
:100EA000C22FE894CA3049F497FB3EF490958095A0
:100EB000709561957F4F8F4F9F4F2C2F332744277D
:100EC0005527FF93EF930E94DB07EF91FF91605D41
:100ED0006A330CF0695D6193B901CA0160507040DA
:100EE0008040904051F716F4CDE2C19310828F916B
:100EF0009F91CF910C94B707FA01CF93FF93EF9393
:100F00002230CCF02532BCF4C22F2C2F33274427BB
:100F10005527FF93EF930E94DB07EF91FF91605DF0
:100F20006A330CF0695D6193B901CA016050704089
:100F30008040904051F710828F919F91CF910C94F7
:100F4000B707FB019F01423074F0453264F4642F0F
:100F500077270E94C707805D8A330CF0895D8193F3
:100F6000CB010097A1F71082C9010C94B707DC01EF
:100F7000FC01672F71917723E1F7329704C07C91D0
:100F80006D9370836291AE17BF07C8F30895AA1BD3
:100F9000BB1B51E107C0AA1FBB1FA617B70710F064
:100FA000A61BB70B881F991F5A95A9F78095909596
:100FB000BC01CD010895A1E21A2EAA1BBB1BFD01A5
:100FC0000DC0AA1FBB1FEE1FFF1FA217B307E40728
:100FD000F50720F0A21BB30BE40BF50B661F771F80
:100FE000881F991F1A9469F7609570958095909560
:0E0FF0009B01AC01BD01CF010895F894FFCF25
:080FFE000100E1000000000801
:00000001FF
