:1000000019C02BC02AC02AC028C027C026C025C0BE
:1000100024C023C022C021C020C01FC01EC01DC0DC
:100020001CC01BC01AC019C018C017C016C015C00C
:1000300014C013C011241FBECFEFD2E0DEBFCDBF6E
:1000400011E0A0E0B1E0E6E9F3E002C005900D9216
:10005000A632B107D9F714D19CC1D2CF1F920F920B
:100060000FB60F9211242F933F938F939F93EF938B
:10007000FF93DF93CF9300D0CDB7DEB783E290E05C
:10008000FC0190818B2D89238695882F90E06C014F
:100090009701C601820F931F9A8389838BE290E0B8
:1000A00029813A81F9012081FC01208384E490E0D8
:1000B00029813A812A5F3F4FF9012081FC01208389
:1000C00080EB90E029813A81245F3F4FF901208144
:1000D000FC0120838A2D8150A82E0F900F90CF9184
:1000E000DF91FF91EF919F918F913F912F910F9011
:1000F0000FBE0F901F901895DF93CF93CDB7DEB74B
:100100008BE690E02EE0FC01208388E690E021E081
:10011000FC012083CF91DF910895DF93CF930F925D
:10012000CDB7DEB789838CE790E02981FC0120837D
:100130008AE790E02AE730E0F90120812064FC01A1
:10014000208300008AE790E0FC018081882F90E006
:10015000807490700097B1F789E790E0FC0180818E
:100160000F90CF91DF910895DF93CF93CDB7DEB796
:1001700084E490E023EAFC01208385E490E021E020
:10018000FC01208380EB90E023E2FC01208381EBE3
:1001900090E021E0FC01208386E490E0FC011082E5
:1001A00082EB90E023E0FC01208385E390E025E3EF
:1001B00030E0F9012081FC01208386E390E026E312
:1001C00030E0F9012081FC012083CF91DF91089577
:1001D000DF93CF93CDB7DEB78AE790E022E8FC014A
:1001E0002083CF91DF910895DF93CF930F92CDB706
:1001F000DEB7898385E390E025E330E0F9012081D3
:10020000FC012083000085E390E0FC018081882FC1
:1002100090E0817090700097B1F3F89487E490E0DB
:100220002981FC01208388E490E02981FC0120835E
:1002300084EB90E02981FC01208378940F90CF918A
:10024000DF910895DF93CF930F92CDB7DEB7898307
:100250008981813049F4F8940F2EF3E1EF2EF1E01B
:10026000FF2EF02D789408C0F8940F2EF0E0EF2EBA
:10027000F1E0FF2EF02D78940F90CF91DF9108954B
:10028000DF93CF9300D000D0CDB7DEB719821A82AA
:1002900085E590E025E530E0F90120812061FC0151
:1002A00020830F2EFEE0BF2EF02D81E0CBDF5CDF40
:1002B00023DF8EDF84E290E024E230E0F901208148
:1002C0002E60FC01208385E290E025E230E0F90118
:1002D00020812E60FC01208385E290E025E230E061
:1002E000F9012081217FFC01208384E290E024E257
:1002F00030E0F9012081217FFC01208378948981FD
:1003000073DF8AE290E02CEFFC01208387E290E02B
:1003100027E230E0F90120812260FC01208384E2A1
:10032000FCDE882F90E09C838B838B819C818C30BA
:10033000910584F088E290E028E230E0F901208124
:100340002D7FFC0120838981823000F189818250D8
:1003500089831CC088E290E028E230E0F901208126
:100360002260FC01208380E2D8DE880F8A839A8194
:100370008981891720F489818F5F898307C09A81D9
:100380008981981718F489818150898389812CDFAC
:06039000C6CFF894FFCF78
:100396000044A02418508883232303830303030304
:1003A6002303230088501824A044038303232383B4
:0603B600230323030303EF
:00000001FF
