:100000000C94F1000C940E010C940E010C940E0152
:100010000C940E010C940E010C940E010C940E0124
:100020000C940E010C940E010C94820A0C942A0B71
:100030000C940E010C940E010C940E010C940E0104
:100040000C940E010C940E010C940E010C940E01F4
:100050000C940E010C940E010C940E010C940E01E4
:100060000C940E010C940E010C940E010C940E01D4
:100070000C940E010C940E010C940E010C940E01C4
:100080000C940E010C940E010C940E010C940E01B4
:100090000C940E010C940E010C940E010C940E01A4
:1000A0000C940E010C940E010C940E019B098E0908
:1000B0008109740967095A094D094009330926095C
:1000C00019090C09FF08F208E508D808CB08BE0892
:1000D000B108A40897088A087D08700863085608C4
:1000E00049083C082F08220815080808FB07EE07F6
:1000F000E107D407C707BA07AD07A007930786072C
:1001000079076C075F075207450738072B071E075B
:1001100011070407F706EA06DD06D006C306B60691
:10012000A9069C068F068206750668065B06000116
:10013000C112018036018136120100020200001056
:10014000C0167A0400010102030109024300020102
:1001500000C0320904000001020201000524001061
:1001600001052401010104240206052406000107FB
:1001700005820310004009040100020A0000000784
:100180000503024000000705840240000004030943
:100190000412034A002E0020004600690065006E2C
:1001A000006500000006034D003200000008033423
:1001B0000031003000000000010000380112000290
:1001C00000004A0143000300008D010401030904FB
:1001D00091011202030904A5010603030904AD01FC
:1001E000080011241FBECFEFDAE0DEBFCDBF11E063
:1001F000A0E0B1E0E4E3FCE202C005900D92A03182
:10020000B107D9F711E0A0E1B1E001C01D92A4311E
:10021000B107E1F70E9410010C9418160C9400002D
:10022000DF93CF93CDB7DEB70E942D0180E090E041
:10023000CF91DF910895DF93CF9300D0CDB7DEB794
:100240009A83898389819A810E946C0E0E94C109D8
:100250000F900F90CF91DF9108950F931F93DF932D
:10026000CF93CDB7DEB7A0970FB6F894DEBF0FBE21
:10027000CDBF81E690E020E8FC01208381E690E09C
:10028000FC0110828BE290E02BE230E0F90120814A
:100290002160FC0120838BE290E02BE230E0F90149
:1002A00020812260FC0120838BE290E02BE230E091
:1002B000F90120812460FC0120830E940D040000CC
:1002C0000E9441048823E1F38DE290E02DE230E0CA
:1002D000F90120812460FC0120838EE290E02EE26F
:1002E00030E0F90120812B7FFC01208380E090E049
:1002F000A8E4B3E48F839887A987BA876F8178854C
:1003000089859A8520E030E04AE755E40E948C1107
:10031000DC01CB018B879C87AD87BE8711E06B85A5
:100320007C858D859E8520E030E040E85FE30E947B
:10033000E61288230CF010E0112329F081E090E010
:10034000988B8F8746C011E06B857C858D859E8557
:1003500020E03FEF4FE757E40E94861218160CF09A
:1003600010E0112361F16F81788589859A8520E0FD
:1003700030E040E251E40E948C11DC01CB01BC0171
:10038000CD010E94B80FDC01CB01988B8F8712C082
:1003900080E991E09A8B898B89899A898C01C801BF
:1003A0000197F1F78C011A8B098B8F85988901973A
:1003B000988B8F878F859889009751F717C06B8529
:1003C0007C858D859E850E94B80FDC01CB01988BC2
:1003D0008F878F8598899C8B8B8B8B899C898C01CF
:1003E000F8013197F1F78F011C8B0B8B8DE290E0B8
:1003F0002DE230E0F90120812460FC0120838EE2AF
:1004000090E02EE230E0F90120812460FC0120839D
:1004100088EB90E02CE0FC01208389E690E029E65F
:1004200030E0F90120812062FC01208389E690E020
:1004300029E630E0F90120812F7EFC0120838DE345
:1004400090E02DE330E0F90120812460FC0120835D
:10045000789489E68D838BE38E838D816BE640E013
:100460000E94C3028D816BE148E00E94C30201C07B
:1004700000000E9495048823D9F38DE290E02DE2DC
:1004800030E0F90120812460FC0120838EE290E0BD
:100490002EE230E0F901308124E02327FC012083A3
:1004A0000E944A048BE390E09A8389831C821B821A
:1004B0003BC02B813C8189819A81820F931F8134BB
:1004C000910529F489819A8102969A8389838B8187
:1004D0009C8199230CF40196959587959C01220F98
:1004E000331F8B819C8142E050E0BA010E94F814D6
:1004F00041E050E0BA01681B790BCB018901080F7C
:10050000191F9B818981980F8D81692F0E944E034D
:10051000282FCE014596800F911FFC0120838B81EF
:100520009C8101969C838B832B813C8189819A815C
:10053000820F931F893491050CF4BBCF8D890E94E3
:10054000E7048E890E94E7048F890E94E704888D62
:100550000E94E704898D0E94E7048A8D0E94E704C7
:100560008B8D0E94E7048C8D0E94E7048D8D0E9484
:10057000E7048E8D0E94E7048F8D0E94E70488A116
:100580000E94E70476CFDF93CF9300D00F92CDB7D0
:10059000DEB789836A834B838CEB90E024EAFC010D
:1005A000208300008CEB90E0FC0180818823D4F74D
:1005B0008BEB90E02981220FFC0120838CEB90E0F3
:1005C00024E8FC01208300008CEB90E0FC0180819A
:1005D0008823D4F789EB90E0FC018081882F90E09C
:1005E000887F90708831910539F08CEB90E024E998
:1005F000FC01208380E04CC08BEB90E02A81FC0161
:1006000020838CEB90E024E8FC01208300008CEB3D
:1006100090E0FC0180818823D4F789EB90E0FC0115
:100620008081882F90E0887F90708832910539F022
:100630008CEB90E024E9FC01208380E029C08BEB67
:1006400090E02B81FC0120838CEB90E024E8FC01FE
:10065000208300008CEB90E0FC0180818823D4F79C
:1006600089EB90E0FC018081882F90E0887F90707A
:100670008832910539F08CEB90E024E9FC0120836D
:1006800080E006C08CEB90E024E9FC01208381E04F
:100690000F900F900F90CF91DF910895DF93CF933C
:1006A00000D00F92CDB7DEB78A836B8319828CEBB3
:1006B00090E024EAFC01208300008CEB90E0FC0138
:1006C00080818823D4F78BEB90E02A81220FFC01F4
:1006D00020838CEB90E024E8FC01208300008CEB6D
:1006E00090E0FC0180818823D4F789EB90E0FC0145
:1006F0008081882F90E0887F90708831910539F053
:100700008CEB90E024E9FC01208380E080C08BEB3F
:1007100090E02B81FC0120838CEB90E024E8FC012D
:10072000208300008CEB90E0FC0180818823D4F7CB
:1007300089EB90E0FC018081882F90E0887F9070A9
:100740008832910539F08CEB90E024E9FC0120839C
:1007500080E05DC08CEB90E024EAFC012083000087
:100760008CEB90E0FC0180818823D4F78BEB90E048
:100770002A81222F30E0220F331F2160FC012083C9
:100780008CEB90E024E8FC01208300008CEB90E0EF
:10079000FC0180818823D4F789EB90E0FC01808103
:1007A000882F90E0887F90708034910539F08CEB31
:1007B00090E024E9FC01208380E029C08CEB90E0EC
:1007C00024E8FC01208300008CEB90E0FC01808198
:1007D0008823D4F789EB90E0FC018081882F90E09A
:1007E000887F90708835910539F08CEB90E024E992
:1007F000FC01208380E00BC08BEB90E0FC0180814A
:1008000089838CEB90E024E9FC01208389810F909F
:100810000F900F90CF91DF910895DF93CF93CDB7D5
:10082000DEB787ED90E021E0FC01208388ED90E0C9
:1008300020EAFC01208389E490E022E1FC0120838E
:10084000000089E490E0FC018081882F90E08170B5
:1008500090700097B1F388ED90E020E9FC012083CF
:1008600080EE90E0FC0110821092100110921301B2
:1008700082EE90E02CE0FC0120837894CF91DF9110
:100880000895DF93CF93CDB7DEB780911001CF915C
:10089000DF910895DF93CF9300D0CDB7DEB78FE51A
:1008A00090E0FC0180818983F89480911001882375
:1008B00039F48FE590E02981FC0120838FEF30C06F
:1008C00089EE90E023E0FC01208388EE90E0FC01BB
:1008D0008081882F90E080729070009739F48FE5C6
:1008E00090E02981FC0120838FEF1AC081EF90E016
:1008F000FC0180818A8388EE90E0FC018081882F52
:1009000090E080729070009729F488EE90E02BE6DA
:10091000FC0120838FE590E02981FC0120838A81FE
:100920000F900F90CF91DF910895DF93CF9300D078
:10093000CDB7DEB719828FE590E0FC0180818A8314
:10094000F89480911001882351F089EE90E023E023
:10095000FC01208382EF90E0FC01808189838FE598
:1009600090E02A81FC01208389810F900F90CF9124
:10097000DF910895DF93CF930F92CDB7DEB78091CB
:100980001001882301F18FE590E0FC0180818983CB
:10099000F89489EE90E023E0FC01208305C088EE06
:1009A00090E02BE6FC01208388EE90E0FC01808142
:1009B000882F90E080729070009789F78FE590E023
:1009C0002981FC0120830F90CF91DF910895DF935F
:1009D000CF9300D00F92CDB7DEB78B8380911001FB
:1009E000882311F48FEF73C08FE590E0FC018081C4
:1009F0008983F89489EE90E024E0FC0120838091C3
:100A00001201882399F088EE90E0FC018081882F04
:100A100090E080729070009739F48FE590E0298122
:100A2000FC0120838FEF53C01092120184EE90E0FE
:100A3000FC018081875E8A8388EE90E0FC018081E2
:100A4000882F90E080729070009781F081EF90E0A5
:100A50002B81FC01208388EE90E0FC018081882FAF
:100A600090E080729070009721F128C08FE590E0AF
:100A70002981FC01208384EE90E0FC0190818A8131
:100A8000981729F481E0809312018FEF20C08091A4
:100A90001001882311F48FEF1AC08FE590E0FC015C
:100AA00080818983F89489EE90E024E0FC01208322
:100AB000C3CF88EE90E02AE3FC01208385E0809399
:100AC00011018FE590E02981FC01208380E00F90E7
:100AD0000F900F90CF91DF910895DF93CF9300D0C7
:100AE000CDB7DEB78A8380911001882311F48FEF90
:100AF00039C08FE590E0FC0180818983F89489EE0C
:100B000090E024E0FC01208388EE90E0FC018081ED
:100B1000882F90E080729070009739F48FE590E014
:100B20002981FC0120838FEF1DC081EF90E02A8195
:100B3000FC01208388EE90E0FC018081882F90E00A
:100B400080729070009729F488EE90E02AE3FC010F
:100B5000208385E0809311018FE590E02981FC01DD
:100B6000208380E00F900F90CF91DF910895DF9365
:100B7000CF93CDB7DEB727970FB6F894DEBF0FBE81
:100B8000CDBF9D838C837F836E83809110018823EA
:100B900011F48FEFEDC38FE590E0FC018081898334
:100BA000F89489EE90E024E0FC012083809112010A
:100BB000882309F4D2C388EE90E0FC018081882F5D
:100BC00090E080729070009739F48FE590E0298171
:100BD000FC0120838FEFCCC310921201BEC384EEC0
:100BE00090E0FC018081875E8B8388EE90E0FC01C1
:100BF0008081882F90E080729070009791F082EF52
:100C000090E0FC01808190E4F92FF81B8F2F8A83FC
:100C10008A81282F30E08E819F818217930720F1EF
:100C200025C08FE590E02981FC01208384EE90E0CF
:100C3000FC0190818B81981729F481E08093120147
:100C40008FEF96C380911001882311F48FEF90C32A
:100C50008FE590E0FC0180818983F89489EE90E033
:100C600024E0FC012083C1CF8E818A838A81882F72
:100C700090E02E813F81A901481B590BCA019F8337
:100C80008E838A81882F90E0AA2797FDA095BA2F9E
:100C900040E050E020E430E0841B950B2817390732
:100CA00008F43CC38A5A9F4FFC01EE0FFF1F0590CA
:100CB000F491E02D099481EF90E02C813D81F901C0
:100CC0002081FC0120838C819D8101969D838C83F2
:100CD00081EF90E02C813D81F9012081FC0120838E
:100CE0008C819D8101969D838C8381EF90E02C8186
:100CF0003D81F9012081FC0120838C819D81019639
:100D00009D838C8381EF90E02C813D81F9012081CE
:100D1000FC0120838C819D8101969D838C8381EFD2
:100D200090E02C813D81F9012081FC0120838C81A0
:100D30009D8101969D838C8381EF90E02C813D8184
:100D4000F9012081FC0120838C819D8101969D8386
:100D50008C8381EF90E02C813D81F9012081FC01A1
:100D600020838C819D8101969D838C8381EF90E00F
:100D70002C813D81F9012081FC0120838C819D81A2
:100D800001969D838C8381EF90E02C813D81F90158
:100D90002081FC0120838C819D8101969D838C8321
:100DA00081EF90E02C813D81F9012081FC012083BD
:100DB0008C819D8101969D838C8381EF90E02C81B5
:100DC0003D81F9012081FC0120838C819D81019668
:100DD0009D838C8381EF90E02C813D81F9012081FE
:100DE000FC0120838C819D8101969D838C8381EF02
:100DF00090E02C813D81F9012081FC0120838C81D0
:100E00009D8101969D838C8381EF90E02C813D81B3
:100E1000F9012081FC0120838C819D8101969D83B5
:100E20008C8381EF90E02C813D81F9012081FC01D0
:100E300020838C819D8101969D838C8381EF90E03E
:100E40002C813D81F9012081FC0120838C819D81D1
:100E500001969D838C8381EF90E02C813D81F90187
:100E60002081FC0120838C819D8101969D838C8350
:100E700081EF90E02C813D81F9012081FC012083EC
:100E80008C819D8101969D838C8381EF90E02C81E4
:100E90003D81F9012081FC0120838C819D81019697
:100EA0009D838C8381EF90E02C813D81F90120812D
:100EB000FC0120838C819D8101969D838C8381EF31
:100EC00090E02C813D81F9012081FC0120838C81FF
:100ED0009D8101969D838C8381EF90E02C813D81E3
:100EE000F9012081FC0120838C819D8101969D83E5
:100EF0008C8381EF90E02C813D81F9012081FC0100
:100F000020838C819D8101969D838C8381EF90E06D
:100F10002C813D81F9012081FC0120838C819D8100
:100F200001969D838C8381EF90E02C813D81F901B6
:100F30002081FC0120838C819D8101969D838C837F
:100F400081EF90E02C813D81F9012081FC0120831B
:100F50008C819D8101969D838C8381EF90E02C8113
:100F60003D81F9012081FC0120838C819D810196C6
:100F70009D838C8381EF90E02C813D81F90120815C
:100F8000FC0120838C819D8101969D838C8381EF60
:100F900090E02C813D81F9012081FC0120838C812E
:100FA0009D8101969D838C8381EF90E02C813D8112
:100FB000F9012081FC0120838C819D8101969D8314
:100FC0008C8381EF90E02C813D81F9012081FC012F
:100FD00020838C819D8101969D838C8381EF90E09D
:100FE0002C813D81F9012081FC0120838C819D8130
:100FF00001969D838C8381EF90E02C813D81F901E6
:101000002081FC0120838C819D8101969D838C83AE
:1010100081EF90E02C813D81F9012081FC0120834A
:101020008C819D8101969D838C8381EF90E02C8142
:101030003D81F9012081FC0120838C819D810196F5
:101040009D838C8381EF90E02C813D81F90120818B
:10105000FC0120838C819D8101969D838C8381EF8F
:1010600090E02C813D81F9012081FC0120838C815D
:101070009D8101969D838C8381EF90E02C813D8141
:10108000F9012081FC0120838C819D8101969D8343
:101090008C8381EF90E02C813D81F9012081FC015E
:1010A00020838C819D8101969D838C8381EF90E0CC
:1010B0002C813D81F9012081FC0120838C819D815F
:1010C00001969D838C8381EF90E02C813D81F90115
:1010D0002081FC0120838C819D8101969D838C83DE
:1010E00081EF90E02C813D81F9012081FC0120837A
:1010F0008C819D8101969D838C8381EF90E02C8172
:101100003D81F9012081FC0120838C819D81019624
:101110009D838C8381EF90E02C813D81F9012081BA
:10112000FC0120838C819D8101969D838C8381EFBE
:1011300090E02C813D81F9012081FC0120838C818C
:101140009D8101969D838C8381EF90E02C813D8170
:10115000F9012081FC0120838C819D8101969D8372
:101160008C8381EF90E02C813D81F9012081FC018D
:1011700020838C819D8101969D838C8381EF90E0FB
:101180002C813D81F9012081FC0120838C819D818E
:1011900001969D838C8381EF90E02C813D81F90144
:1011A0002081FC0120838C819D8101969D838C830D
:1011B00081EF90E02C813D81F9012081FC012083A9
:1011C0008C819D8101969D838C8381EF90E02C81A1
:1011D0003D81F9012081FC0120838C819D81019654
:1011E0009D838C8381EF90E02C813D81F9012081EA
:1011F000FC0120838C819D8101969D838C8381EFEE
:1012000090E02C813D81F9012081FC0120838C81BB
:101210009D8101969D838C8381EF90E02C813D819F
:10122000F9012081FC0120838C819D8101969D83A1
:101230008C8381EF90E02C813D81F9012081FC01BC
:1012400020838C819D8101969D838C8381EF90E02A
:101250002C813D81F9012081FC0120838C819D81BD
:1012600001969D838C8381EF90E02C813D81F90173
:101270002081FC0120838C819D8101969D838C833C
:1012800081EF90E02C813D81F9012081FC012083D8
:101290008C819D8101969D838C8381EF90E02C81D0
:1012A0003D81F9012081FC0120838C819D81019683
:1012B0009D838C8381EF90E02C813D81F901208119
:1012C000FC0120838C819D8101969D838C8381EF1D
:1012D00090E02C813D81F9012081FC0120838C81EB
:1012E0009D8101969D838C8381EF90E02C813D81CF
:1012F000F9012081FC0120838C819D8101969D83D1
:101300008C8381EF90E02C813D81F9012081FC01EB
:1013100020838C819D8101969D838C8381EF90E059
:101320002C813D81F9012081FC0120838C819D81EC
:1013300001969D838C8388EE90E0FC018081882F4C
:1013400090E080729070009729F488EE90E02AE394
:10135000FC01208385E0809311018E819F8100979D
:1013600009F03DCC8FE590E02981FC01208380E0ED
:1013700027960FB6F894DEBF0FBECDBFCF91DF9199
:101380000895DF93CF930F92CDB7DEB78FE590E04E
:10139000FC0180818983F89480911101882361F098
:1013A00089EE90E024E0FC01208388EE90E02AE3BF
:1013B000FC012083109211018FE590E02981FC014E
:1013C00020830F90CF91DF910895DF93CF93CDB716
:1013D000DEB780E091E0FC0180819181A281B38140
:1013E000BC01CD01CF91DF910895DF93CF93CDB7AD
:1013F000DEB780910401CF91DF910895DF93CF9301
:10140000CDB7DEB780910501CF91DF910895DF93CD
:10141000CF93CDB7DEB780910601CF91DF910895CC
:10142000DF93CF93CDB7DEB780911301CF91DF91DA
:101430000895DF93CF9300D0CDB7DEB78A838FE5D1
:1014400090E0FC0180818983F894809110018823C9
:1014500039F48FE590E02981FC0120838FEF4DC0A6
:1014600089EE90E022E0FC01208388EE90E0FC0110
:101470008081882F90E080729070009739F48FE51A
:1014800090E02981FC0120838FEF37C081EF90E04D
:1014900021EAFC01208381EF90E020E2FC0120831F
:1014A00081EF90E0FC01108281EF90E0FC0110825E
:1014B00081EF90E0FC01108281EF90E0FC0110824E
:1014C00081EF90E022E0FC01208381EF90E0FC01BD
:1014D000108281EF90E02A81FC01208381EF90E06F
:1014E000FC01108288EE90E02AE3FC0120838FE566
:1014F00090E02981FC01208380E00F900F90CF9134
:10150000DF9108951F920F920FB60F9211242F931F
:101510008F939F93EF93FF93DF93CF9300D0CDB73B
:10152000DEB781EE90E0FC018081898381EE90E05E
:10153000FC0110828981882F90E08870907000975C
:10154000D9F089EE90E0FC0110828BEE90E021E072
:10155000FC0120838CEE90E0FC0110828DEE90E087
:1015600022E1FC01208380EF90E028E0FC01208351
:1015700010921001109213018981882F90E08470DD
:1015800090700097E9F0809110018823C9F0809154
:1015900011018A838A81882399F08A8181508A8304
:1015A0008A81809311018A81882351F489EE90E029
:1015B00024E0FC01208388EE90E02AE3FC012083F4
:1015C0000F900F90CF91DF91FF91EF919F918F91AD
:1015D0002F910F900FBE0F901F901895DF93CF9310
:1015E000CDB7DEB7000088EE90E0FC018081882F47
:1015F00090E0817090700097B1F3CF91DF910895E2
:10160000DF93CF93CDB7DEB788EE90E02EEFFC01ED
:101610002083CF91DF910895DF93CF93CDB7DEB7CD
:10162000000088EE90E0FC018081882F90E08470BB
:1016300090700097B1F3CF91DF910895DF93CF932E
:10164000CDB7DEB788EE90E02BEFFC012083CF9181
:10165000DF9108951F920F920FB60F921124EF920F
:10166000FF920F931F932F933F934F935F936F932B
:101670007F938F939F93AF93BF93EF93FF93DF93EA
:10168000CF93CDB7DEB7E397DEBFCDBF89EE90E055
:10169000FC01108288EE90E0FC0180818B878B85B5
:1016A000882F90E088709070009709F479C281EFDC
:1016B00090E0FC0180818C8781EF90E0FC018081CB
:1016C0008D8781EF90E0FC018081882F90E09F87DB
:1016D0008E8781EF90E0FC018081882F90E0982F29
:1016E00088272E853F85822B932B9F878E8781EFBE
:1016F00090E0FC018081882F90E0998B888B81EFAE
:1017000090E0FC018081882F90E0982F882728891D
:101710003989822B932B998B888B81EF90E0FC0188
:101720008081882F90E09B8B8A8B81EF90E0FC0179
:101730008081882F90E0982F88272A893B89822BE7
:10174000932B9B8B8A8B88EE90E022EFFC01208309
:101750008D85863009F0D6C087EB91E09A83898326
:101760001D828D81863030F08BEE90E021E2FC010D
:1017700020831DC289819A819D8B8C8B8C899D8948
:101780008C01F801E590F4908F01FF8AEE8A1D8BA1
:101790000C8B8E899F89998F888F288D398D8E85A6
:1017A0009F852817390731F089819A8107969A8396
:1017B00089835BC089819A8102969A838983898112
:1017C0009A819B8F8A8F8A8D9B8D8C01F801E59081
:1017D000F4908F01FD8EEC8E1B8F0A8F8C8D9D8D6A
:1017E000998F888F288D398D88899989281739078D
:1017F00031F089819A8105969A83898336C08981DF
:101800009A8102969A83898389819A819F8F8E8F8C
:101810008E8D9F8D8C01F801E590F4908F01F9A2D7
:10182000E8A21F8F0E8F88A199A19A878987898145
:101830009A8102969A83898389819A819BA38AA33C
:101840008AA19BA1FC0114911CA38CA18DA38A8960
:101850009B898F3F910519F010F08FEF90E08E83F8
:101860009E818DA1891728F006C08D818F5F8D83A1
:1018700078CF8DA18E8388EE90E0FC0180818D83EE
:101880008D81882F90E0857090700097A1F38D81F5
:10189000882F90E084709070009709F087C18E8146
:1018A000813108F080E18EA38EA18D8317C081EF76
:1018B00090E029853A8538A72FA329853A852F5F9F
:1018C0003F4F3A8729872FA138A5F901149119A70D
:1018D00029A5FC0120838D8181508D838D818823F2
:1018E00031F79E818EA1F92FF81B8F2F8E830E94D6
:1018F000000B8E81882309F0BECF8EA1803109F4C0
:10190000BACF55C18D85853059F40E94000B0E94D5
:10191000EE0A83EE90E02E852068FC01208347C10B
:101920008D85893009F06AC08C85882309F066C0EE
:101930008E858093100110921301109211010E9464
:10194000000B8EE291E09C838B8381E08D8348C005
:1019500089EE90E02D81FC0120838B819C819BA7E7
:101960008AA78B819C8101969C838B838AA59BA5EA
:10197000FC0114911CA78CA58DA78BEE90E02DA5E2
:10198000FC0120838DA5882341F18CEE90E02B8112
:101990003C813FA72EA72B813C812F5F3F4F3C838B
:1019A0002B832EA53FA5F901149118AB28A9FC01A2
:1019B00020838DEE90E02B813C813AAB29AB2B81CB
:1019C0003C812F5F3F4F3C832B8329A93AA9F90122
:1019D00014911BAB2BA9FC0120838D818F5F8D831C
:1019E0008D81853008F4B4CF8AEE90E02EE1FC01C1
:1019F00020838AEE90E0FC011082D9C08D8588306A
:101A000071F48C85803859F40E94EE0A81EF90E0E1
:101A100020911001FC0120830E94000BC8C08D851D
:101A2000813209F58C85813AF1F40E94EE0A80E05A
:101A300091E098878F831D8210C081EF90E02F8105
:101A40003885F9012081FC0120838F8198850196DA
:101A500098878F838D818F5F8D838D81873068F329
:101A60000E94000BA4C08D85803219F58C858132CF
:101A700001F50E940C0B80E091E098878F831D8216
:101A800010C081EF90E0FC0120818F819885FC01DE
:101A900020838F819885019698878F838D818F5FB2
:101AA0008D838D81873068F30E941E0B0E94000B8E
:101AB0007EC08D85823259F48C85813241F48E85C9
:101AC000809313010E94EE0A0E94000B70C08D8566
:101AD000882339F50E94EE0A1D828C858238A9F48C
:101AE00089EE90E02889FC0120838BEE90E0FC01D8
:101AF0008081882F90E080729070009711F081E0D3
:101B00008D8389EE90E0FC01108281EF90E02D81C1
:101B1000FC01208381EF90E0FC0110820E94000B09
:101B200046C08D85813019F08D858330C9F58C854F
:101B30008230B1F58E859F85009791F588898F77E2
:101B40008D838D81882361F18D81853048F50E94D8
:101B5000000B89EE90E02D81FC0120838D85833080
:101B600031F48BEE90E021E2FC01208320C08BEE6B
:101B700090E029E1FC0120838AEE90E02D81422F44
:101B800050E021E030E0042E02C0220F331F0A94FF
:101B9000E2F7FC0120838AEE90E0FC01108207C08E
:101BA0008BEE90E021E2FC01208301C00000E3966F
:101BB000DEBFCDBFCF91DF91FF91EF91BF91AF918C
:101BC0009F918F917F916F915F914F913F912F9155
:101BD0001F910F91FF90EF900F900FBE0F901F90ED
:101BE00018951F93DF93CF9300D000D000D0CDB7CE
:101BF000DEB79E838D838D819E819A8389838D81BB
:101C00009E8101969E838D8389819A81FC01149126
:101C10001B838B818C838C81882351F08C818A304B
:101C200019F48DE00E94E7048C810E94E704E3CF61
:101C3000000026960FB6F894DEBF0FBECDBFCF9141
:101C4000DF911F910895DF93CF930F92CDB7DEB749
:101C5000898389818A3010F480E301C087E3998108
:101C6000890F0E94E7040F90CF91DF910895DF93D1
:101C7000CF930F92CDB7DEB78983898182958F701C
:101C80000E94230E89818F700E94230E0F90CF91A6
:101C9000DF910895DF93CF9300D0CDB7DEB79A835D
:101CA000898389819A81892F99270E94370E89819A
:101CB0000E94370E0F900F90CF91DF910895DF9320
:101CC000CF930F92CDB7DEB7898389810E94370EFB
:101CD0000F90CF91DF910895DF93CF93CDB7DEB70B
:101CE00028970FB6F894DEBF0FBECDBF98878F83BD
:101CF00026E0CE010196FC01322F11923A95E9F7C8
:101D00008F8198859E012F5F3F4FB9014AE050E0D7
:101D10000E94561518861F821BC08F8198859E01D0
:101D20002F5F3F4F820F931FFC018081882359F062
:101D30008F8198859E012F5F3F4F820F931FFC017B
:101D400080810E94E7048F819885019698878F8310
:101D50008F8198858630910504F328960FB6F89404
:101D6000DEBF0FBECDBFCF91DF910895DF93CF933C
:101D7000CDB7DEB727970FB6F894DEBF0FBECDBF45
:101D80009F838E8325E0CE010196FC01322F1192B4
:101D90003A95E9F78E819F819E012F5F3F4FB901F0
:101DA0004AE050E00E94D0151F821E821BC08E8127
:101DB0009F819E012F5F3F4F820F931FFC01808107
:101DC000882359F08E819F819E012F5F3F4F820FA4
:101DD000931FFC0180810E94E7048E819F81019600
:101DE0009F838E838E819F818530910500F3279696
:101DF0000FB6F894DEBF0FBECDBFCF91DF9108952F
:101E0000DF93CF93CDB7DEB72F970FB6F894DEBF31
:101E10000FBECDBF6C877D878E879F872BE0CE015D
:101E20000196FC01322F11923A95E9F78C859D8538
:101E3000AE85BF85BC01CD019E012F5F3F4FA9013B
:101E40002AE030E00E9477151C861D861E861F86BC
:101E500021C08C859D859E012F5F3F4F820F931F70
:101E6000FC018081882359F08C859D859E012F5F20
:101E70003F4F820F931FFC0180810E94E7048C85F5
:101E80009D85AE85BF850196A11DB11D8C879D875F
:101E9000AE87BF878C859D85AE85BF858B309105CC
:101EA000A105B105B4F22F960FB6F894DEBF0FBEB0
:101EB000CDBFCF91DF910895DF93CF93CDB7DEB73C
:101EC0002E970FB6F894DEBF0FBECDBF6B877C8711
:101ED0008D879E872AE0CE010196FC01322F119258
:101EE0003A95E9F78B859C85AD85BE85BC01CD0112
:101EF0009E012F5F3F4FA9012AE030E00E94AB1501
:101F00001B861C861D861E8621C08B859C859E0196
:101F10002F5F3F4F820F931FFC018081882359F070
:101F20008B859C859E012F5F3F4F820F931FFC0185
:101F300080810E94E7048B859C85AD85BE850196D6
:101F4000A11DB11D8B879C87AD87BE878B859C8526
:101F5000AD85BE858A309105A105B105B0F22E96FA
:101F60000FB6F894DEBF0FBECDBFCF91DF910895BD
:101F7000EF92FF920F931F937B018C0120E030E0E2
:101F800040E05FE40E94B61287FD11C0C801B701AE
:101F900020E030E040E05FE40E945B110E941613F5
:101FA0009B01AC01205030404040504806C0C80161
:101FB000B7010E9416139B01AC01B901CA011F9120
:101FC0000F91FF90EF900895A0E0B0E0EAEEFFE0FF
:101FD0000C942315FC01EA018081823008F438C199
:101FE000DB019C91923008F430C1843059F4943074
:101FF00009F02EC1918111968C911197981709F0D3
:1020000021C126C1943009F420C19230B1F482304C
:1020100009F01EC1CA01AF0128E0DA010D90AD013F
:10202000DC010D92CD012150C1F7DB0111968C919D
:1020300011979181892389830AC1823009F405C1EE
:10204000C280D380DB0112966D907C90139724811F
:102050003581468157811496ED90FD900D911C912C
:102060001797C601861997095C0197FF04C0AA2437
:10207000BB24A81AB90AB0E2AB16B1040CF061C0D7
:10208000181619066CF5370148010A2C04C09694FD
:102090008794779467940A94D2F781E090E0A0E067
:1020A000B0E00A2C04C0880F991FAA1FBB1F0A9416
:1020B000D2F70197A109B1098E219F21A023B12355
:1020C000EE24FF248701E3940097A105B10519F4DC
:1020D000EE24FF248701E628F728082919293CC0A7
:1020E0000097D1F1CA0CDB1C39014A010A2C04C04B
:1020F00096948794779467940A94D2F781E090E05D
:10210000A0E0B0E00A2C04C0880F991FAA1FBB1FD3
:102110000A94D2F70197A109B10982239323A4233A
:10212000B52321E030E040E050E00097A105B10583
:1021300019F420E030E0A901262937294829592936
:102140000BC06C147D0424F4EE24FF24870104C02A
:10215000630120E030E0A9018181FB0191818917B1
:1021600009F445C0882349F0D801C701821B930BAD
:10217000A40BB50B9C01AD0104C02E193F09400B07
:10218000510B57FD04C01982DB82CA820BC081E06B
:102190008983DB82CA8250954095309521953F4FC7
:1021A0004F4F5F4F2C833D834E835F830DC0880F5D
:1021B000991FAA1FBB1F8C839D83AE83BF838A8117
:1021C0009B8101979B838A838C819D81AE81BF8196
:1021D0009C01AD0121503040404050402F3FEFEF77
:1021E0003E07EFEF4E07EFE35E0708F30BC089836E
:1021F000DB82CA822E0D3F1D401F511F2C833D8361
:102200004E835F8383E088832C813D814E815F8193
:1022100057FF1DC0DA01C90181709070A070B070C5
:102220005695479537952795822B932BA42BB52B45
:102230008C839D83AE83BF838A819B8101969B8320
:102240008A8305C0E7E0F1E003C0FB0101C0FE01A5
:10225000CF01CDB7DEB7EEE00C943F15A0E2B0E0C1
:10226000E4E3F1E10C942B1569837A838B839C83DF
:102270002D833E834F83588789E0E82EF12CEC0EA6
:10228000FD1ECE010196B7010E9436148E010F5E2D
:102290001F4FCE010596B8010E943614C701B80140
:1022A000AE01475E5F4F0E94E40F0E946813A09644
:1022B000E6E00C944715A0E2B0E0E1E6F1E10C9411
:1022C0002B1569837A838B839C832D833E834F8375
:1022D00058878E01075F1F4FCE010196B8010E94FB
:1022E000361491E1E92EF12CEC0EFD1ECE0105967F
:1022F000B7010E9436148A8991E089278A8BC80128
:10230000B701AE01475E5F4F0E94E40F0E94681361
:10231000A096E6E00C944715A0E2B0E0E2E9F1E116
:102320000C941F1569837A838B839C832D833E8352
:102330004F835887CE010196BE01675F7F4F0E9491
:102340003614CE010596BE016F5E7F4F0E94361493
:102350009985923078F089898230C0F0943019F4F0
:10236000823041F4CBC0843019F4923079F4C6C085
:10237000923051F481E02A859A89291709F480E086
:102380008A87CE010996BCC0823051F481E02A854B
:102390009A89291709F480E08A8BCE014196B0C052
:1023A0006D847E848F849888ED88FE880F89188DCF
:1023B000E0E2F0E080E090E0DC01AA24BB246501CB
:1023C00020E030E0A901B301617070706115710502
:1023D000D1F02E0D3F1D401F511F15012601280E63
:1023E000391E4A1E5B1E81E090E0A0E0B0E02E1591
:1023F0003F054007510718F080E090E0DC01820DB6
:10240000931DA41DB51DAA0CBB1CCC1CDD1C17FF05
:1024100009C061E0262E312C412C512CA228B32872
:10242000C428D528319749F0EE0CFF1C001F111F5E
:102430009694879477946794C6CF6B897C89EB8553
:10244000FC856E0F7F1F6E5F7F4F7C8F6B8F61E00F
:10245000EA857A89E71709F460E06A8F6B8D7C8DD5
:1024600010C0FC01E170F070309729F05695479547
:10247000379527955068B695A795979587956F5F7F
:102480007F4FB7FDEECF0CC0880F991FAA1FBB1F4F
:1024900057FD8160220F331F441F551F615070404C
:1024A0008030E0E09E07E0E0AE07E0E4BE0760F3C6
:1024B0006B8F7C8F6FE7E62EF12C012D112DE8221A
:1024C000F9220A231B2360E4E616F1040105110535
:1024D00061F487FD0AC0211531054105510529F038
:1024E000805C9F4FAF4FBF4F80788D8F9E8FAF8F97
:1024F000B8A383E0898FCE01499602C087E091E0BE
:102500000E946813A096E2E10C943B15A8E1B0E0AC
:10251000ECE8F2E10C942B1569837A838B839C831E
:102520002D833E834F8358878E01075F1F4FCE0157
:102530000196B8010E94361481E1E82EF12CEC0ED0
:10254000FD1ECE010596B7010E94361489858230A2
:1025500040F08989823028F0C801B7010E949F1499
:1025600001C08FEF6896E6E00C944715A8E1B0E053
:10257000ECEBF2E10C942B1569837A838B839C83BB
:102580002D833E834F8358878E01075F1F4FCE01F7
:102590000196B8010E94361481E1E82EF12CEC0E70
:1025A000FD1ECE010596B7010E9436148985823042
:1025B00040F08989823028F0C801B7010E949F1439
:1025C00001C08FEF6896E6E00C944715A8E1B0E0F3
:1025D000ECEEF2E10C942B1569837A838B839C8358
:1025E0002D833E834F8358878E01075F1F4FCE0197
:1025F0000196B8010E94361481E1E82EF12CEC0E10
:10260000FD1ECE010596B7010E94361489858230E1
:1026100040F08989823028F0C801B7010E949F14D8
:1026200001C081E06896E6E00C944715ACE0B0E0AC
:10263000ECE1F3E10C942F1569837A838B839C83FF
:10264000CE010196BE016B5F7F4F0E9436148D81D3
:10265000823081F1823070F1843021F48E818823C0
:1026600069F10AC02F81388537FD24C06E812F3172
:1026700031053CF0662311F120E030E040E050E805
:1026800021C08EE190E0821B930B29853A854B8512
:102690005C8504C056954795379527958A95D2F75E
:1026A000662381F050954095309521953F4F4F4FCF
:1026B0005F4F08C020E030E0A90104C02FEF3FEFDA
:1026C0004FEF5FE7B901CA012C96E2E00C944B157D
:1026D000EF92FF920F931F93CF93DF93FC0124811E
:1026E00035814681578161818081823020F440614B
:1026F000EFEFF0E0A3C0843009F49BC0823009F40E
:1027000092C0211531054105510509F48FC00280A1
:10271000F381E02D8FEFE238F8070CF05AC0C2E8E1
:10272000DFEFCE1BDF0BCA31D1056CF579018A01D1
:102730000C2E04C016950795F794E7940A94D2F7E7
:1027400081E090E0A0E0B0E00C2E04C0880F991F5B
:10275000AA1FBB1F0A94D2F70197A109B1098223CE
:102760009323A423B52321E030E040E050E000971C
:10277000A105B10519F420E030E0A9012E293F2977
:10278000402B512B03C020E030E0A901DA01C90140
:102790008F779070A070B07080349105A105B1055D
:1027A00039F427FF09C0205C3F4F4F4F5F4F04C0F3
:1027B000215C3F4F4F4F5F4FE1E0F0E0203080E081
:1027C000380780E0480780E4580728F5E0E0F0E0AB
:1027D00022C0E038F1056CF5E158FF4FDA01C9017C
:1027E0008F779070A070B07080349105A105B1050D
:1027F00039F427FF09C0205C3F4F4F4F5F4F04C0A3
:10280000215C3F4F4F4F5F4F57FF05C0569547958F
:1028100037952795319687E05695479537952795B3
:102820008A95D1F70BC0E0E0F0E005C0E0E0F0E011
:1028300005C0EFEFF0E020E030E0A9018E2F879592
:1028400088278795942F9F77679566276795E695E4
:10285000E22EA92FA82BFE2FF62B622F732F8A2F83
:102860009F2FCDB7DEB7E6E00C944715DC01FB01E6
:102870002C9111963C91119712968C911297482F9A
:102880004F7750E0982F991F9927991F13966C91B5
:102890001397862F880F892B90E0661F6627661F87
:1028A0006183009739F5211531054105510511F472
:1028B00082E029C082E89FEF9383828367E0220F42
:1028C000331F441F551F6A95D1F783E0808309C0E9
:1028D000220F331F441F551F8281938101979383D9
:1028E0008283203080E0380780E0480780E4580782
:1028F00078F320C08F3F910579F42115310541050A
:10290000510519F484E08083089544FF03C081E0F9
:10291000808310C010820EC08F57904093838283B3
:1029200083E0808387E0220F331F441F551F8A9561
:10293000D1F7506424833583468357830895FC017F
:10294000DB019081923008F449C08C91823008F408
:1029500045C0943051F461818430B1F511962C91C9
:10296000119730E0261B310941C0843021F09230AC
:1029700041F48230B1F111968C9111978823A1F125
:102980002DC06181823001F111968C9111976817E9
:10299000D9F42281338112968D919C9113978217DD
:1029A000930794F028173907BCF0248135814681BC
:1029B000578114968D919D910D90BC91A02D8217F9
:1029C0009307A407B50718F4662341F00DC0281734
:1029D00039074A075B0728F4662331F021E030E02D
:1029E00005C020E030E002C02FEF3FEFC90108959D
:1029F00097FB092E07260AD077FD04D00CD006D00D
:102A000000201AF4709561957F4F0895F6F7909520
:102A100081959F4F0895AA1BBB1B51E107C0AA1FB8
:102A2000BB1FA617B70710F0A61BB70B881F991F6F
:102A30005A95A9F780959095BC01CD0108952F92E4
:102A40003F924F925F926F927F928F929F92AF923E
:102A5000BF92CF92DF92EF92FF920F931F93CF938B
:102A6000DF93CDB7DEB7CA1BDB0B0FB6F894DEBF22
:102A70000FBECDBF09942A88398848885F846E8448
:102A80007D848C849B84AA84B984C884DF80EE8092
:102A9000FD800C811B81AA81B981CE0FD11D0FB69B
:102AA000F894DEBF0FBECDBFED010895FB019F017D
:102AB000E8944230C4F04532B4F44A3029F497FB2C
:102AC0001EF4909581959F4F642F77270E940B15D8
:102AD000805D8A330CF0895D8193CB010097A1F76B
:102AE00016F45DE251931082C9010C94E615FA01C7
:102AF000CF93FF93EF93223044F1253234F5C22F68
:102B0000E894CA3049F497FB3EF49095809570950F
:102B100061957F4F8F4F9F4F2C2F33274427552789
:102B2000FF93EF930E94F615EF91FF91605D6A337A
:102B30000CF0695D6193B901CA016050704080403A
:102B4000904051F716F4CDE2C19310828F919F917E
:102B5000CF910C94E615FA01CF93FF93EF932230B7
:102B6000CCF02532BCF4C22F2C2F33274427552715
:102B7000FF93EF930E94F615EF91FF91605D6A332A
:102B80000CF0695D6193B901CA01605070408040EA
:102B9000904051F710828F919F91CF910C94E61540
:102BA000FB019F01423074F0453264F4642F7727B3
:102BB0000E940B15805D8A330CF0895D8193CB01F7
:102BC0000097A1F71082C9010C94E615DC01FC0105
:102BD000672F71917723E1F7329704C07C916D9351
:102BE00070836291AE17BF07C8F30895A1E21A2E51
:102BF000AA1BBB1BFD010DC0AA1FBB1FEE1FFF1FA1
:102C0000A217B307E407F50720F0A21BB30BE40BF0
:102C1000F50B661F771F881F991F1A9469F7609537
:102C20007095809590959B01AC01BD01CF010895F1
:042C3000F894FFCF46
:102C340000E10000000008000000000000000000A7
:00000001FF
