:1000000019C028C027C026C025C024C023C022C0D4
:1000100021C020C01FC01EC01DC01CC01BC01AC0F4
:1000200019C018C017C016C015C014C013C012C024
:100030006AC010C011241FBECFEFD2E0DEBFCDBF1B
:1000400011E0A0E0B1E001C01D92A330B107E1F7DB
:1000500002D0B9C0D5CFDF93CF93CDB7DEB70BD0E9
:100060001AD00000809103018830E1F780E090E031
:10007000CF91DF910895DF93CF93CDB7DEB781E6BF
:1000800090E020E8FC01208381E690E0FC011082F2
:10009000CF91DF910895DF93CF93CDB7DEB7109264
:1000A0000101109202018AE290E02FE1FC0120831D
:1000B0008BE290E0FC0110828AEB90E022E0FC01F0
:1000C00020838AEB90E02AEB30E0F9012081216067
:1000D000FC0120838BEB90E02FEFFC012083F89450
:1000E0008CEB90E025ECFC0120837894000080915B
:1000F00001018830E1F78BE290E021E0FC012083F0
:10010000CF91DF9108951F920F920FB60F92112495
:100110002F933F938F939F93EF93FF93DF93CF930F
:100120000F92CDB7DEB789EB90E0FC018081887F2C
:1001300089838981882F90E080389105C9F08138C2
:1001400091053CF48036910559F08037910541F0D6
:100150002CC08039910561F0803A910501F125C0EC
:10016000109200018CEB90E025ECFC0120831DC077
:1001700080910001882F90E02BEB30E0F901208185
:100180008F5F9E4FFC012083809100018F5F8093E1
:1001900000018CEB90E025ECFC01208306C08CEB89
:1001A00090E025ECFC01208300000F90CF91DF91BF
:1001B000FF91EF919F918F913F912F910F900FBEE3
:0A01C0000F901F901895F894FFCFE0
:00000001FF
