:1000000019C028C027C026C025C024C023C022C0D4
:1000100021C020C01FC01EC01DC01CC01BC01AC0F4
:1000200019C018C017C016C015C014C013C012C024
:10003000F8C010C011241FBECFEFD2E0DEBFCDBF8D
:1000400011E0A0E0B1E001C01D92A730B107E1F7D7
:1000500002D08CC1D5CFDF93CF9300D00F92CDB714
:10006000DEB786D081E060E041E0A6D08AEA8B83EB
:10007000CE0103966BD0789401C0000089D088230C
:10008000E1F38FD09A83898389819A81FC018081F1
:10009000882F90E08130910571F0823091051CF439
:1000A000009741F051C08230910549F183309105AC
:1000B00039F14AC04AC084E290E024E230E0F9011C
:1000C0002081206CFC01208389819A810196FC01AA
:1000D0008081823051F485E290E025E230E0F90140
:1000E00020812064FC01208309C085E290E025E2A4
:1000F00030E0F90120812068FC01208326C025C062
:100100008AE290E02AE230E0F9012081206CFC01D3
:10011000208389819A810196FC018081843051F489
:100120008BE290E02BE230E0F90120812064FC01B9
:10013000208309C08BE290E02BE230E0F9012081BE
:100140002068FC01208301C0000098CFDF93CF938B
:1001500000D0CDB7DEB79A83898389819A81909345
:100160000401809303010F900F90CF91DF910895C8
:10017000DF93CF93CDB7DEB781E690E020E8FC01B6
:10018000208381E690E0FC011082CF91DF910895F9
:10019000DF93CF93CDB7DEB780910201CF91DF918E
:1001A0000895DF93CF93CDB7DEB71092020185E0BB
:1001B00091E0CF91DF910895DF93CF9300D00F921C
:1001C000CDB7DEB789836A834B8310920501109205
:1001D00006018AEB90E02981220FFC0120838B81AC
:1001E000882349F08AEB90E02AEB30E0F901208186
:1001F0002160FC0120838DEB90E02A81220FFC011D
:1002000020838BEB90E02FEFFC0120838CEB90E0C0
:1002100025ECFC0120830F900F900F90CF91DF9180
:1002200008951F920F920FB60F9211242F933F93B0
:100230008F939F93EF93FF93DF93CF930F92CDB75D
:10024000DEB789EB90E0FC018081887F898389811A
:10025000882F90E0803A910509F44FC0813A9105CA
:100260008CF48037910511F18137910524F48036A3
:100270009105E1F06DC08038910521F1803991053B
:1002800009F166C0883B910509F45FC0893B91057F
:1002900024F4883A9105D1F15BC0803C910509F4C2
:1002A00049C0883C910509F445C052C01092000134
:1002B00010920501109206018CEB90E025ECFC01F8
:1002C000208346C080910001823088F48091000133
:1002D000882F90E02BEB30E0F90120818B5F9E4F5F
:1002E000FC012083809100018F5F809300018CEBE3
:1002F00090E025ECFC0120832BC08CEB90E025ECFA
:10030000FC01208381E08093020122C080910501DD
:100310008430E9F48BEB90E02091030130910401EB
:10032000F9012081FC0120838CEB90E025E8FC01A1
:1003300020830EC08BEB90E0FC0110828CEB90E0F0
:1003400025ECFC012083000003C0000001C0000078
:100350000F90CF91DF91FF91EF919F918F913F91FE
:100360002F910F900FBE0F901F901895F894FFCF0C
:00000001FF
