:1000000019C028C027C026C025C024C023C022C0D4
:1000100021C020C01FC01EC01DC01CC01BC01AC0F4
:1000200019C018C017C016C015C014C013C012C024
:1000300074C010C011241FBECFEFD2E0DEBFCDBF11
:1000400011E0A0E0B1E001C01D92A530B107E1F7D9
:1000500002D023C1D5CFDF93CF93CDB7DEB706D083
:1000600081E060E041E012D07894FFCFDF93CF933E
:10007000CDB7DEB781E690E020E8FC01208381E681
:1000800090E0FC011082CF91DF910895DF93CF9330
:1000900000D00F92CDB7DEB789836A834B8310926D
:1000A0000301109204018AE290E02FE1FC01208319
:1000B0008BE290E0FC0110828AEB90E02981220F14
:1000C000FC0120838B81882349F08AEB90E02AEBA6
:1000D00030E0F90120812160FC0120838DEB90E06C
:1000E0002A81220FFC0120838BEB90E02FEFFC0193
:1000F00020838CEB90E025ECFC0120838BE290E0E8
:100100002BE230E0F90120812160FC0120830F9077
:100110000F900F90CF91DF9108951F920F920FB61D
:100120000F9211242F933F938F939F93EF93FF93FD
:10013000DF93CF930F92CDB7DEB789EB90E0FC0150
:100140008081887F89838BE290E02981269526959E
:10015000FC0120838981882F90E08039910541F14D
:100160008139910554F480379105D1F0803891059B
:10017000F9F080369105A1F082C0883A9105E9F145
:10018000893A910524F4803A910569F178C0883B59
:10019000910509F45BC0883C910509F466C06FC005
:1001A000109200018CEB90E025ECFC01208367C0ED
:1001B00080910001823088F480910001882F90E0C6
:1001C0002BEB30E0F90120818D5F9E4FFC012083F5
:1001D000809100018F5F809300018CEB90E025EC13
:1001E000FC0120834CC08CEB90E0FC0110828CEB76
:1001F00090E025ECFC01208342C080910301813016
:1002000099F48BE290E02BE230E0F901208121604B
:10021000FC0120838BEB90E028E0FC0120838CEB39
:1002200090E025E8FC01208380910301823021F5D4
:100230008BEB90E02AE0FC0120838CEB90E025EC36
:10024000FC01208381E08093010119C080910301AA
:100250008230A1F48BEB90E029E0FC0120838CEB51
:1002600090E025E8FC0120830AC08CEB90E025E8B3
:10027000FC012083000003C0000001C000000F90BB
:10028000CF91DF91FF91EF919F918F913F912F91AE
:0E0290000F900FBE0F901F901895F894FFCF9F
:00000001FF
