:1000000019C028C027C026C025C024C023C022C0D4
:1000100021C020C01FC01EC01DC01CC01BC01AC0F4
:1000200019C018C017C016C015C014C013C012C024
:1000300011C010C011241FBECFEFD2E0DEBFCDBF74
:1000400011E0A0E0B1E001C01D92A330B107E1F7DB
:1000500002D063C0D5CFDF93CF93CDB7DEB70ED03C
:1000600081E060E041E01AD0000080910301883017
:10007000E1F780E090E0CF91DF910895DF93CF9397
:10008000CDB7DEB781E690E020E8FC01208381E671
:1000900090E0FC011082CF91DF910895DF93CF9320
:1000A00000D00F92CDB7DEB789836A834B8310925D
:1000B0000101109202018AE290E02FE1FC0120830D
:1000C0008BE290E0FC0110828AEB90E02981220F04
:1000D000FC0120838B81882349F08AEB90E02AEB96
:1000E00030E0F90120812160FC0120838DEB90E05C
:1000F0002A81220FFC0120838BEB90E02FEFFC0183
:100100002083F8948CEB90E025ECFC0120830F9089
:0E0110000F900F90CF91DF910895F894FFCFDC
:00000001FF
