:1000000019C028C027C026C025C024C023C022C0D4
:1000100021C020C01FC01EC01DC01CC01BC01AC0F4
:1000200019C018C017C016C015C014C013C012C024
:1000300074C010C011241FBECFEFD2E0DEBFCDBF11
:1000400011E0A0E0B1E001C01D92A530B107E1F7D9
:1000500002D03CC1D5CFDF93CF93CDB7DEB706D06A
:1000600081E060E041E01BD07894FFCFDF93CF9335
:10007000CDB7DEB781E690E020E8FC01208381E681
:1000800090E0FC01108284E290E024E230E0F9018B
:100090002081216CFC012083CF91DF910895DF93B3
:1000A000CF9300D00F92CDB7DEB789836A834B839D
:1000B00010920301109204018AE290E02FE1FC010A
:1000C00020838BE290E0FC0110828AEB90E0298192
:1000D000220FFC0120838B81882349F08AEB90E07A
:1000E0002AEB30E0F90120812160FC0120838DEBB7
:1000F00090E02A81220FFC0120838BEB90E02FEF10
:10010000FC0120838CEB90E025ECFC0120830F9018
:100110000F900F90CF91DF9108951F920F920FB61D
:100120000F9211242F933F938F939F93EF93FF93FD
:10013000DF93CF930F92CDB7DEB789EB90E0FC0150
:100140008081887F89838BE290E02981269526959E
:10015000FC0120838981882F90E0803A910509F481
:100160005FC0813A91058CF48037910519F1813790
:10017000910524F480369105E9F09AC08038910504
:1001800009F180399105F1F093C0803C910509F4A3
:1001900079C0813C91054CF4883A910509F446C038
:1001A000883B910509F45FC083C0883C910509F440
:1001B00069C07EC0109200018CEB90E025ECFC0140
:1001C000208376C080910001823088F48091000104
:1001D000882F90E02BEB30E0F90120818D5F9E4F5E
:1001E000FC012083809100018F5F8093000185E2F4
:1001F00090E0FC018081882F90E0807490700097DF
:1002000049F085E290E025E230E0F90120812068A4
:10021000FC0120838CEB90E025ECFC01208348C09E
:100220008CEB90E025ECFC01208342C0809103011F
:10023000813051F48BEB90E028E0FC0120838CEBC3
:1002400090E025E8FC01208380910301823069F56C
:100250008BEB90E02AE0FC0120838CEB90E025EC16
:10026000FC01208325C080910301823001F58BEBD6
:1002700090E029E0FC0120838CEB90E025E8FC0174
:10028000208316C08BEB90E0FC0110828CEB90E099
:1002900025ECFC01208385E290E025E230E0F901C5
:1002A00020812064FC01208303C0000001C0000005
:1002B0000F90CF91DF91FF91EF919F918F913F919F
:1002C0002F910F900FBE0F901F901895F894FFCFAD
:00000001FF
