:100000000C9456000C9460000C9460000C946000FA
:100010000C9460000C9460000C9460000C946000E0
:100020000C9460000C9460000C9460000C946000D0
:100030000C9460000C9460000C9460000C946000C0
:100040000C9460000C9460000C9460000C946000B0
:100050000C9460000C9460000C9460000C946000A0
:100060000C9460000C9460000C9460000C94600090
:100070000C9460000C9460000C9460000C94600080
:100080000C9460000C9460000C9460000C94600070
:100090000C9460000C9460000C9460000C94600060
:1000A0000C9460000C9460000C94600011241FBE3E
:1000B000CFEFDAE0DEBFCDBF0E94B5000C944C015B
:1000C0000C94000080E88093610010926100589ABF
:1000D000599A5A9A8CE08093B800809169008062A6
:1000E00080936900809169008F7E80936900EA9A0D
:1000F00078946E9A769890E044EA34E824E9409344
:10010000BC008091BC0087FFFCCF892F880F8093B3
:10011000BB003093BC008091BC0087FFFCCF809176
:10012000B900887F883129F02093BC009F5F903808
:1001300031F76A9A72981092BB0084E88093BC00F1
:100140008091BC0087FFFCCF8091B900887F883206
:1001500029F084E98093BC0080E0089584E98093CD
:10016000BC006E9A769881E008950E94620080E05B
:1001700090E00895982F84EA8093BC008091BC00A1
:1001800087FFFCCF990F9093BB0084E88093BC005D
:100190008091BC0087FFFCCF8091B900887F8831B7
:1001A000E1F46093BB0084E88093BC008091BC00C4
:1001B00087FFFCCF8091B900887F883271F440932B
:1001C000BB0084E88093BC008091BC0087FFFCCF1B
:1001D0008091B900887F883229F084E98093BC003F
:1001E00080E0089584E98093BC0081E00895982F11
:1001F00084EA8093BC008091BC0087FFFCCF892FEC
:10020000880F8093BB0084E88093BC008091BC0081
:1002100087FFFCCF8091B900887F883189F5609392
:10022000BB0084E88093BC008091BC0087FFFCCFBA
:100230008091B900887F883219F584EA8093BC00E8
:100240008091BC0087FFFCCF990F91609093BB0019
:1002500084E88093BC008091BC0087FFFCCF809134
:10026000B900887F803461F484E88093BC00809179
:10027000BC0087FFFCCF8091B900887F883529F0CA
:1002800084E98093BC0090E005C09091BB0084E9B4
:0C0290008093BC00892F0895F894FFCFE4
:00000001FF
